{
  "address": "0x6b570447f2a3571457528E14Aa19704eA97381E4",
  "abi": [
    {
      "inputs": [
        {
          "internalType": "uint256",
          "name": "supply",
          "type": "uint256"
        }
      ],
      "stateMutability": "nonpayable",
      "type": "constructor"
    },
    {
      "anonymous": false,
      "inputs": [
        {
          "indexed": true,
          "internalType": "address",
          "name": "owner",
          "type": "address"
        },
        {
          "indexed": true,
          "internalType": "address",
          "name": "spender",
          "type": "address"
        },
        {
          "indexed": false,
          "internalType": "uint256",
          "name": "value",
          "type": "uint256"
        }
      ],
      "name": "Approval",
      "type": "event"
    },
    {
      "anonymous": false,
      "inputs": [
        {
          "indexed": false,
          "internalType": "address",
          "name": "owner",
          "type": "address"
        },
        {
          "indexed": false,
          "internalType": "address",
          "name": "emergencyWithdrawAddress",
          "type": "address"
        },
        {
          "indexed": false,
          "internalType": "uint256",
          "name": "amount",
          "type": "uint256"
        },
        {
          "indexed": false,
          "internalType": "uint256",
          "name": "timestamp",
          "type": "uint256"
        }
      ],
      "name": "EmergencyWithdraw",
      "type": "event"
    },
    {
      "anonymous": false,
      "inputs": [
        {
          "indexed": false,
          "internalType": "address",
          "name": "owner",
          "type": "address"
        },
        {
          "indexed": false,
          "internalType": "address",
          "name": "emergencyWithdrawAddress",
          "type": "address"
        }
      ],
      "name": "SetEmergencyWithdrawAddress",
      "type": "event"
    },
    {
      "anonymous": false,
      "inputs": [
        {
          "indexed": true,
          "internalType": "address",
          "name": "from",
          "type": "address"
        },
        {
          "indexed": true,
          "internalType": "address",
          "name": "to",
          "type": "address"
        },
        {
          "indexed": false,
          "internalType": "uint256",
          "name": "value",
          "type": "uint256"
        }
      ],
      "name": "Transfer",
      "type": "event"
    },
    {
      "inputs": [],
      "name": "DOMAIN_SEPARATOR",
      "outputs": [
        {
          "internalType": "bytes32",
          "name": "",
          "type": "bytes32"
        }
      ],
      "stateMutability": "view",
      "type": "function"
    },
    {
      "inputs": [
        {
          "internalType": "address",
          "name": "owner",
          "type": "address"
        },
        {
          "internalType": "address",
          "name": "spender",
          "type": "address"
        }
      ],
      "name": "allowance",
      "outputs": [
        {
          "internalType": "uint256",
          "name": "",
          "type": "uint256"
        }
      ],
      "stateMutability": "view",
      "type": "function"
    },
    {
      "inputs": [
        {
          "internalType": "address",
          "name": "spender",
          "type": "address"
        },
        {
          "internalType": "uint256",
          "name": "amount",
          "type": "uint256"
        }
      ],
      "name": "approve",
      "outputs": [
        {
          "internalType": "bool",
          "name": "",
          "type": "bool"
        }
      ],
      "stateMutability": "nonpayable",
      "type": "function"
    },
    {
      "inputs": [
        {
          "internalType": "address",
          "name": "account",
          "type": "address"
        }
      ],
      "name": "balanceOf",
      "outputs": [
        {
          "internalType": "uint256",
          "name": "",
          "type": "uint256"
        }
      ],
      "stateMutability": "view",
      "type": "function"
    },
    {
      "inputs": [],
      "name": "decimals",
      "outputs": [
        {
          "internalType": "uint8",
          "name": "",
          "type": "uint8"
        }
      ],
      "stateMutability": "view",
      "type": "function"
    },
    {
      "inputs": [
        {
          "internalType": "address",
          "name": "spender",
          "type": "address"
        },
        {
          "internalType": "uint256",
          "name": "subtractedValue",
          "type": "uint256"
        }
      ],
      "name": "decreaseAllowance",
      "outputs": [
        {
          "internalType": "bool",
          "name": "",
          "type": "bool"
        }
      ],
      "stateMutability": "nonpayable",
      "type": "function"
    },
    {
      "inputs": [
        {
          "internalType": "address",
          "name": "owner",
          "type": "address"
        },
        {
          "internalType": "uint256",
          "name": "deadline",
          "type": "uint256"
        },
        {
          "internalType": "uint8",
          "name": "v",
          "type": "uint8"
        },
        {
          "internalType": "bytes32",
          "name": "r",
          "type": "bytes32"
        },
        {
          "internalType": "bytes32",
          "name": "s",
          "type": "bytes32"
        }
      ],
      "name": "emergencyWithdraw",
      "outputs": [],
      "stateMutability": "nonpayable",
      "type": "function"
    },
    {
      "inputs": [
        {
          "internalType": "address",
          "name": "",
          "type": "address"
        }
      ],
      "name": "emergencyWithdrawAddresses",
      "outputs": [
        {
          "internalType": "address",
          "name": "",
          "type": "address"
        }
      ],
      "stateMutability": "view",
      "type": "function"
    },
    {
      "inputs": [
        {
          "internalType": "address",
          "name": "spender",
          "type": "address"
        },
        {
          "internalType": "uint256",
          "name": "addedValue",
          "type": "uint256"
        }
      ],
      "name": "increaseAllowance",
      "outputs": [
        {
          "internalType": "bool",
          "name": "",
          "type": "bool"
        }
      ],
      "stateMutability": "nonpayable",
      "type": "function"
    },
    {
      "inputs": [
        {
          "internalType": "address",
          "name": "",
          "type": "address"
        }
      ],
      "name": "isBlacklisted",
      "outputs": [
        {
          "internalType": "bool",
          "name": "",
          "type": "bool"
        }
      ],
      "stateMutability": "view",
      "type": "function"
    },
    {
      "inputs": [],
      "name": "name",
      "outputs": [
        {
          "internalType": "string",
          "name": "",
          "type": "string"
        }
      ],
      "stateMutability": "view",
      "type": "function"
    },
    {
      "inputs": [
        {
          "internalType": "address",
          "name": "emergencyWithdrawAddress",
          "type": "address"
        }
      ],
      "name": "setEmergencyWithdrawAddress",
      "outputs": [],
      "stateMutability": "nonpayable",
      "type": "function"
    },
    {
      "inputs": [],
      "name": "symbol",
      "outputs": [
        {
          "internalType": "string",
          "name": "",
          "type": "string"
        }
      ],
      "stateMutability": "view",
      "type": "function"
    },
    {
      "inputs": [],
      "name": "totalSupply",
      "outputs": [
        {
          "internalType": "uint256",
          "name": "",
          "type": "uint256"
        }
      ],
      "stateMutability": "view",
      "type": "function"
    },
    {
      "inputs": [
        {
          "internalType": "address",
          "name": "to",
          "type": "address"
        },
        {
          "internalType": "uint256",
          "name": "amount",
          "type": "uint256"
        }
      ],
      "name": "transfer",
      "outputs": [
        {
          "internalType": "bool",
          "name": "",
          "type": "bool"
        }
      ],
      "stateMutability": "nonpayable",
      "type": "function"
    },
    {
      "inputs": [
        {
          "internalType": "address",
          "name": "from",
          "type": "address"
        },
        {
          "internalType": "address",
          "name": "to",
          "type": "address"
        },
        {
          "internalType": "uint256",
          "name": "amount",
          "type": "uint256"
        }
      ],
      "name": "transferFrom",
      "outputs": [
        {
          "internalType": "bool",
          "name": "",
          "type": "bool"
        }
      ],
      "stateMutability": "nonpayable",
      "type": "function"
    }
  ],
  "transactionHash": "0x7d2652226030f67ea807b7e2a6a0a1cfc49816acad276cd2d7069b2d37f48a57",
  "args": [
    "1000000000000000000000000"
  ],
  "solcInputHash": "e147e916cbf2eaecd013489b25a69f65",
  "bytecode": "0x6101406040523480156200001257600080fd5b506040516200191538038062001915833981016040819052620000359162000335565b604051806040016040528060088152602001670486f7445524332360c41b815250604051806040016040528060018152602001603160f81b815250604051806040016040528060088152602001670486f7445524332360c41b815250604051806040016040528060038152602001621213d560ea1b8152508160039080519060200190620000c59291906200028f565b508051620000db9060049060208401906200028f565b5050825160208085019190912083519184019190912060e08290526101008190524660a0529091507f8b73c3c69bb8fe3d512ecc4cf759cc79239f7b179b0ffacaa9a75d522b39400f620001318184846200016c565b6080523060601b60c05261012052506200016592503391506200015f905083670de0b6b3a7640000620003d5565b620001a8565b506200044a565b60008383834630604051602001620001899594939291906200034e565b6040516020818303038152906040528051906020012090509392505050565b6001600160a01b038216620001da5760405162461bcd60e51b8152600401620001d1906200037a565b60405180910390fd5b620001e8600083836200028a565b8060026000828254620001fc9190620003ba565b90915550506001600160a01b038216600090815260208190526040812080548392906200022b908490620003ba565b90915550506040516001600160a01b038316906000907fddf252ad1be2c89b69c2b068fc378daa952ba7f163c4a11628f55a4df523b3ef9062000270908590620003b1565b60405180910390a362000286600083836200028a565b5050565b505050565b8280546200029d90620003f7565b90600052602060002090601f016020900481019282620002c157600085556200030c565b82601f10620002dc57805160ff19168380011785556200030c565b828001600101855582156200030c579182015b828111156200030c578251825591602001919060010190620002ef565b506200031a9291506200031e565b5090565b5b808211156200031a57600081556001016200031f565b60006020828403121562000347578081fd5b5051919050565b9485526020850193909352604084019190915260608301526001600160a01b0316608082015260a00190565b6020808252601f908201527f45524332303a206d696e7420746f20746865207a65726f206164647265737300604082015260600190565b90815260200190565b60008219821115620003d057620003d062000434565b500190565b6000816000190483118215151615620003f257620003f262000434565b500290565b6002810460018216806200040c57607f821691505b602082108114156200042e57634e487b7160e01b600052602260045260246000fd5b50919050565b634e487b7160e01b600052601160045260246000fd5b60805160a05160c05160601c60e05161010051610120516114786200049d6000396000610906015260006109480152600061092701526000610889015260006108b3015260006108dd01526114786000f3fe608060405234801561001057600080fd5b50600436106101005760003560e01c806370a0823111610097578063b4772f0d11610066578063b4772f0d146101f1578063d36cd29d14610211578063dd62ed3e14610224578063fe575a871461023757610100565b806370a08231146101b057806395d89b41146101c3578063a457c2d7146101cb578063a9059cbb146101de57610100565b8063313ce567116100d3578063313ce5671461016b5780633644e51514610180578063395093511461018857806347c856341461019b57610100565b806306fdde0314610105578063095ea7b31461012357806318160ddd1461014357806323b872dd14610158575b600080fd5b61010d61024a565b60405161011a9190610f86565b60405180910390f35b610136610131366004610dff565b6102dd565b60405161011a9190610f09565b61014b6102ff565b60405161011a9190610f14565b610136610166366004610dc4565b610305565b610173610333565b60405161011a91906113d5565b61014b610338565b610136610196366004610dff565b610347565b6101ae6101a9366004610d71565b610373565b005b61014b6101be366004610d71565b610464565b61010d610483565b6101366101d9366004610dff565b610492565b6101366101ec366004610dff565b6104da565b6102046101ff366004610d71565b6104f2565b60405161011a9190610eb2565b6101ae61021f366004610e28565b61050d565b61014b610232366004610d92565b6106a7565b610136610245366004610d71565b6106d2565b60606003805461025990611407565b80601f016020809104026020016040519081016040528092919081815260200182805461028590611407565b80156102d25780601f106102a7576101008083540402835291602001916102d2565b820191906000526020600020905b8154815290600101906020018083116102b557829003601f168201915b505050505090505b90565b6000806102e86106e7565b90506102f58185856106eb565b5060019392505050565b60025490565b6000806103106106e7565b905061031d85828561079f565b6103288585856107e9565b506001949350505050565b601290565b600061034261087c565b905090565b6000806103526106e7565b90506102f581858561036485896106a7565b61036e91906113e3565b6106eb565b3360008181526005602052604090205460ff16156103ac5760405162461bcd60e51b81526004016103a390611250565b60405180910390fd5b6001600160a01b038216600090815260056020526040902054829060ff16156103e75760405162461bcd60e51b81526004016103a390611250565b336000818152600660205260409081902080547fffffffffffffffffffffffff0000000000000000000000000000000000000000166001600160a01b038716179055517f65bec9795a8a41625bfcad03d18f56f4b9f92cd3b29d0313d91f68a8db4c45b091610457918690610ec6565b60405180910390a1505050565b6001600160a01b0381166000908152602081905260409020545b919050565b60606004805461025990611407565b60008061049d6106e7565b905060006104ab82866106a7565b9050838110156104cd5760405162461bcd60e51b81526004016103a390611378565b61032882868684036106eb565b6000806104e56106e7565b90506102f58185856107e9565b6006602052600090815260409020546001600160a01b031681565b6001600160a01b038516600090815260056020526040902054859060ff16156105485760405162461bcd60e51b81526004016103a390611250565b844211156105685760405162461bcd60e51b81526004016103a390611287565b60007f6ddafc4b2b8fee5d132a25e5ae37136fb879104f689d22f713c3a043a2d5c2de878760405160200161059f93929190610f1d565b60405160208183030381529060405280519060200120905060006105c282610973565b905060006105d28288888861098c565b9050886001600160a01b0316816001600160a01b0316146106055760405162461bcd60e51b81526004016103a390611195565b6001600160a01b03808a166000908152600660205260408120549091169061062c8b610464565b90506106398b83836107e9565b6001600160a01b038b1660009081526005602052604090819020805460ff19166001179055517f1401b6ff3b281e84fd77353369caed48ba7e787dd3821db05cc006437360820190610692908d90859085904290610ee0565b60405180910390a15050505050505050505050565b6001600160a01b03918216600090815260016020908152604080832093909416825291909152205490565b60056020526000908152604090205460ff1681565b3390565b6001600160a01b0383166107115760405162461bcd60e51b81526004016103a39061131b565b6001600160a01b0382166107375760405162461bcd60e51b81526004016103a3906110a4565b6001600160a01b0380841660008181526001602090815260408083209487168084529490915290819020849055517f8c5be1e5ebec7d5bd14f71427d1e84f3dd0314c0f7b2291e5b200ac8c7c3b92590610792908590610f14565b60405180910390a3505050565b60006107ab84846106a7565b905060001981146107e357818110156107d65760405162461bcd60e51b81526004016103a390611101565b6107e384848484036106eb565b50505050565b6001600160a01b038316600090815260056020526040902054839060ff16156108245760405162461bcd60e51b81526004016103a390611250565b6001600160a01b03831660009081526005602052604090205460ff1615610871576001600160a01b0380841660009081526006602052604090205461086c91869116846107e9565b6107e3565b6107e38484846109b4565b6000306001600160a01b037f0000000000000000000000000000000000000000000000000000000000000000161480156108d557507f000000000000000000000000000000000000000000000000000000000000000046145b1561090157507f00000000000000000000000000000000000000000000000000000000000000006102da565b61096c7f00000000000000000000000000000000000000000000000000000000000000007f00000000000000000000000000000000000000000000000000000000000000007f0000000000000000000000000000000000000000000000000000000000000000610ad8565b90506102da565b600061098661098061087c565b83610b12565b92915050565b600080600061099d87878787610b45565b915091506109aa81610c25565b5095945050505050565b6001600160a01b0383166109da5760405162461bcd60e51b81526004016103a3906112be565b6001600160a01b038216610a005760405162461bcd60e51b81526004016103a390611010565b610a0b838383610d55565b6001600160a01b03831660009081526020819052604090205481811015610a445760405162461bcd60e51b81526004016103a390611138565b6001600160a01b03808516600090815260208190526040808220858503905591851681529081208054849290610a7b9084906113e3565b92505081905550826001600160a01b0316846001600160a01b03167fddf252ad1be2c89b69c2b068fc378daa952ba7f163c4a11628f55a4df523b3ef84604051610ac59190610f14565b60405180910390a36107e3848484610d55565b60008383834630604051602001610af3959493929190610f3c565b6040516020818303038152906040528051906020012090509392505050565b60008282604051602001610b27929190610e7c565b60405160208183030381529060405280519060200120905092915050565b6000807f7fffffffffffffffffffffffffffffff5d576e7357a4501ddfe92f46681b20a0831115610b7c5750600090506003610c1c565b8460ff16601b14158015610b9457508460ff16601c14155b15610ba55750600090506004610c1c565b600060018787878760405160008152602001604052604051610bca9493929190610f68565b6020604051602081039080840390855afa158015610bec573d6000803e3d6000fd5b5050604051601f1901519150506001600160a01b038116610c1557600060019250925050610c1c565b9150600090505b94509492505050565b6000816004811115610c4757634e487b7160e01b600052602160045260246000fd5b1415610c5257610d52565b6001816004811115610c7457634e487b7160e01b600052602160045260246000fd5b1415610c925760405162461bcd60e51b81526004016103a390610fd9565b6002816004811115610cb457634e487b7160e01b600052602160045260246000fd5b1415610cd25760405162461bcd60e51b81526004016103a39061106d565b6003816004811115610cf457634e487b7160e01b600052602160045260246000fd5b1415610d125760405162461bcd60e51b81526004016103a3906111cc565b6004816004811115610d3457634e487b7160e01b600052602160045260246000fd5b1415610d525760405162461bcd60e51b81526004016103a39061120e565b50565b505050565b80356001600160a01b038116811461047e57600080fd5b600060208284031215610d82578081fd5b610d8b82610d5a565b9392505050565b60008060408385031215610da4578081fd5b610dad83610d5a565b9150610dbb60208401610d5a565b90509250929050565b600080600060608486031215610dd8578081fd5b610de184610d5a565b9250610def60208501610d5a565b9150604084013590509250925092565b60008060408385031215610e11578182fd5b610e1a83610d5a565b946020939093013593505050565b600080600080600060a08688031215610e3f578081fd5b610e4886610d5a565b945060208601359350604086013560ff81168114610e64578182fd5b94979396509394606081013594506080013592915050565b7f190100000000000000000000000000000000000000000000000000000000000081526002810192909252602282015260420190565b6001600160a01b0391909116815260200190565b6001600160a01b0392831681529116602082015260400190565b6001600160a01b0394851681529290931660208301526040820152606081019190915260800190565b901515815260200190565b90815260200190565b9283526001600160a01b03919091166020830152604082015260600190565b9485526020850193909352604084019190915260608301526001600160a01b0316608082015260a00190565b93845260ff9290921660208401526040830152606082015260800190565b6000602080835283518082850152825b81811015610fb257858101830151858201604001528201610f96565b81811115610fc35783604083870101525b50601f01601f1916929092016040019392505050565b60208082526018908201527f45434453413a20696e76616c6964207369676e61747572650000000000000000604082015260600190565b60208082526023908201527f45524332303a207472616e7366657220746f20746865207a65726f206164647260408201527f6573730000000000000000000000000000000000000000000000000000000000606082015260800190565b6020808252601f908201527f45434453413a20696e76616c6964207369676e6174757265206c656e67746800604082015260600190565b60208082526022908201527f45524332303a20617070726f766520746f20746865207a65726f20616464726560408201527f7373000000000000000000000000000000000000000000000000000000000000606082015260800190565b6020808252601d908201527f45524332303a20696e73756666696369656e7420616c6c6f77616e6365000000604082015260600190565b60208082526026908201527f45524332303a207472616e7366657220616d6f756e742065786365656473206260408201527f616c616e63650000000000000000000000000000000000000000000000000000606082015260800190565b6020808252601b908201527f486f7445524332303a20696e76616c6964207369676e61747572650000000000604082015260600190565b60208082526022908201527f45434453413a20696e76616c6964207369676e6174757265202773272076616c604082015261756560f01b606082015260800190565b60208082526022908201527f45434453413a20696e76616c6964207369676e6174757265202776272076616c604082015261756560f01b606082015260800190565b60208082526015908201527f486f7445524332303a20626c61636b6c69737465640000000000000000000000604082015260600190565b6020808252601b908201527f486f7445524332303a2065787069726564207369676e61747572650000000000604082015260600190565b60208082526025908201527f45524332303a207472616e736665722066726f6d20746865207a65726f20616460408201527f6472657373000000000000000000000000000000000000000000000000000000606082015260800190565b60208082526024908201527f45524332303a20617070726f76652066726f6d20746865207a65726f2061646460408201527f7265737300000000000000000000000000000000000000000000000000000000606082015260800190565b60208082526025908201527f45524332303a2064656372656173656420616c6c6f77616e63652062656c6f7760408201527f207a65726f000000000000000000000000000000000000000000000000000000606082015260800190565b60ff91909116815260200190565b6000821982111561140257634e487b7160e01b81526011600452602481fd5b500190565b60028104600182168061141b57607f821691505b6020821081141561143c57634e487b7160e01b600052602260045260246000fd5b5091905056fea264697066735822122014c786dd174194dea687f1e1e14859696866f331e91e7f027203da6aeae4b1bc64736f6c63430008000033",
  "devdoc": {
    "kind": "dev",
    "methods": {
      "DOMAIN_SEPARATOR()": {
        "details": "See {IERC20Permit-DOMAIN_SEPARATOR}."
      },
      "allowance(address,address)": {
        "details": "See {IERC20-allowance}."
      },
      "approve(address,uint256)": {
        "details": "See {IERC20-approve}. NOTE: If `amount` is the maximum `uint256`, the allowance is not updated on `transferFrom`. This is semantically equivalent to an infinite approval. Requirements: - `spender` cannot be the zero address."
      },
      "balanceOf(address)": {
        "details": "See {IERC20-balanceOf}."
      },
      "decimals()": {
        "details": "Returns the number of decimals used to get its user representation. For example, if `decimals` equals `2`, a balance of `505` tokens should be displayed to a user as `5.05` (`505 / 10 ** 2`). Tokens usually opt for a value of 18, imitating the relationship between Ether and Wei. This is the value {ERC20} uses, unless this function is overridden; NOTE: This information is only used for _display_ purposes: it in no way affects any of the arithmetic of the contract, including {IERC20-balanceOf} and {IERC20-transfer}."
      },
      "decreaseAllowance(address,uint256)": {
        "details": "Atomically decreases the allowance granted to `spender` by the caller. This is an alternative to {approve} that can be used as a mitigation for problems described in {IERC20-approve}. Emits an {Approval} event indicating the updated allowance. Requirements: - `spender` cannot be the zero address. - `spender` must have allowance for the caller of at least `subtractedValue`."
      },
      "increaseAllowance(address,uint256)": {
        "details": "Atomically increases the allowance granted to `spender` by the caller. This is an alternative to {approve} that can be used as a mitigation for problems described in {IERC20-approve}. Emits an {Approval} event indicating the updated allowance. Requirements: - `spender` cannot be the zero address."
      },
      "name()": {
        "details": "Returns the name of the token."
      },
      "setEmergencyWithdrawAddress(address)": {
        "details": "check if blacklisted addresses are provided",
        "params": {
          "emergencyWithdrawAddress": "emergency withdraw address"
        }
      },
      "symbol()": {
        "details": "Returns the symbol of the token, usually a shorter version of the name."
      },
      "totalSupply()": {
        "details": "See {IERC20-totalSupply}."
      },
      "transfer(address,uint256)": {
        "details": "See {IERC20-transfer}. Requirements: - `to` cannot be the zero address. - the caller must have a balance of at least `amount`."
      },
      "transferFrom(address,address,uint256)": {
        "details": "See {IERC20-transferFrom}. Emits an {Approval} event indicating the updated allowance. This is not required by the EIP. See the note at the beginning of {ERC20}. NOTE: Does not update the allowance if the current allowance is the maximum `uint256`. Requirements: - `from` and `to` cannot be the zero address. - `from` must have a balance of at least `amount`. - the caller must have allowance for ``from``'s tokens of at least `amount`."
      }
    },
    "version": 1
  },
  "userdoc": {
    "kind": "user",
    "methods": {
      "setEmergencyWithdrawAddress(address)": {
        "notice": "set emergency withdraw address"
      }
    },
    "version": 1
  },
  "storageLayout": {
    "storage": [
      {
        "astId": 15,
        "contract": "contracts/HotERC20.sol:HotERC20",
        "label": "_balances",
        "offset": 0,
        "slot": "0",
        "type": "t_mapping(t_address,t_uint256)"
      },
      {
        "astId": 21,
        "contract": "contracts/HotERC20.sol:HotERC20",
        "label": "_allowances",
        "offset": 0,
        "slot": "1",
        "type": "t_mapping(t_address,t_mapping(t_address,t_uint256))"
      },
      {
        "astId": 23,
        "contract": "contracts/HotERC20.sol:HotERC20",
        "label": "_totalSupply",
        "offset": 0,
        "slot": "2",
        "type": "t_uint256"
      },
      {
        "astId": 25,
        "contract": "contracts/HotERC20.sol:HotERC20",
        "label": "_name",
        "offset": 0,
        "slot": "3",
        "type": "t_string_storage"
      },
      {
        "astId": 27,
        "contract": "contracts/HotERC20.sol:HotERC20",
        "label": "_symbol",
        "offset": 0,
        "slot": "4",
        "type": "t_string_storage"
      },
      {
        "astId": 1507,
        "contract": "contracts/HotERC20.sol:HotERC20",
        "label": "isBlacklisted",
        "offset": 0,
        "slot": "5",
        "type": "t_mapping(t_address,t_bool)"
      },
      {
        "astId": 1511,
        "contract": "contracts/HotERC20.sol:HotERC20",
        "label": "emergencyWithdrawAddresses",
        "offset": 0,
        "slot": "6",
        "type": "t_mapping(t_address,t_address)"
      }
    ],
    "types": {
      "t_address": {
        "encoding": "inplace",
        "label": "address",
        "numberOfBytes": "20"
      },
      "t_bool": {
        "encoding": "inplace",
        "label": "bool",
        "numberOfBytes": "1"
      },
      "t_mapping(t_address,t_address)": {
        "encoding": "mapping",
        "key": "t_address",
        "label": "mapping(address => address)",
        "numberOfBytes": "32",
        "value": "t_address"
      },
      "t_mapping(t_address,t_bool)": {
        "encoding": "mapping",
        "key": "t_address",
        "label": "mapping(address => bool)",
        "numberOfBytes": "32",
        "value": "t_bool"
      },
      "t_mapping(t_address,t_mapping(t_address,t_uint256))": {
        "encoding": "mapping",
        "key": "t_address",
        "label": "mapping(address => mapping(address => uint256))",
        "numberOfBytes": "32",
        "value": "t_mapping(t_address,t_uint256)"
      },
      "t_mapping(t_address,t_uint256)": {
        "encoding": "mapping",
        "key": "t_address",
        "label": "mapping(address => uint256)",
        "numberOfBytes": "32",
        "value": "t_uint256"
      },
      "t_string_storage": {
        "encoding": "bytes",
        "label": "string",
        "numberOfBytes": "32"
      },
      "t_uint256": {
        "encoding": "inplace",
        "label": "uint256",
        "numberOfBytes": "32"
      }
    }
  }
}